{
  "contractName": "Childchain_Bridge",
  "abi": [
    {
      "constant": false,
      "inputs": [
        {
          "name": "_amount",
          "type": "uint256"
        }
      ],
      "name": "unlockEther",
      "outputs": [
        {
          "name": "success",
          "type": "bool"
        }
      ],
      "payable": false,
      "stateMutability": "nonpayable",
      "type": "function"
    },
    {
      "constant": false,
      "inputs": [
        {
          "name": "_value",
          "type": "uint256"
        }
      ],
      "name": "withdraw",
      "outputs": [],
      "payable": false,
      "stateMutability": "nonpayable",
      "type": "function"
    },
    {
      "constant": true,
      "inputs": [],
      "name": "total_supply",
      "outputs": [
        {
          "name": "",
          "type": "uint256"
        }
      ],
      "payable": false,
      "stateMutability": "view",
      "type": "function"
    },
    {
      "constant": true,
      "inputs": [],
      "name": "childChain",
      "outputs": [
        {
          "name": "",
          "type": "string"
        }
      ],
      "payable": false,
      "stateMutability": "view",
      "type": "function"
    },
    {
      "constant": true,
      "inputs": [
        {
          "name": "_owner",
          "type": "address"
        }
      ],
      "name": "balanceLocked",
      "outputs": [
        {
          "name": "bal",
          "type": "uint256"
        }
      ],
      "payable": false,
      "stateMutability": "view",
      "type": "function"
    },
    {
      "constant": true,
      "inputs": [
        {
          "name": "_owner",
          "type": "address"
        }
      ],
      "name": "balanceOf",
      "outputs": [
        {
          "name": "bal",
          "type": "uint256"
        }
      ],
      "payable": false,
      "stateMutability": "view",
      "type": "function"
    },
    {
      "constant": false,
      "inputs": [],
      "name": "deposit",
      "outputs": [],
      "payable": true,
      "stateMutability": "payable",
      "type": "function"
    },
    {
      "constant": false,
      "inputs": [
        {
          "name": "_to",
          "type": "address"
        },
        {
          "name": "_amount",
          "type": "uint256"
        }
      ],
      "name": "lockforTransfer",
      "outputs": [
        {
          "name": "success",
          "type": "bool"
        }
      ],
      "payable": false,
      "stateMutability": "nonpayable",
      "type": "function"
    },
    {
      "anonymous": false,
      "inputs": [
        {
          "indexed": true,
          "name": "_from",
          "type": "address"
        },
        {
          "indexed": true,
          "name": "_to",
          "type": "address"
        },
        {
          "indexed": false,
          "name": "_value",
          "type": "uint256"
        }
      ],
      "name": "Transferred",
      "type": "event"
    },
    {
      "anonymous": false,
      "inputs": [
        {
          "indexed": false,
          "name": "_success",
          "type": "bool"
        },
        {
          "indexed": false,
          "name": "_message",
          "type": "string"
        }
      ],
      "name": "StateChanged",
      "type": "event"
    }
  ],
  "bytecode": "0x6060604052606060405190810160405280602781526020017f6a736f6e2868747470733a2f2f72696e6b6562792e696e667572612e696f2f2981526020017f2e726573756c740000000000000000000000000000000000000000000000000081525060009080519060200190610076929190610087565b50341561008257600080fd5b61012c565b828054600181600116156101000203166002900490600052602060002090601f016020900481019282601f106100c857805160ff19168380011785556100f6565b828001600101855582156100f6579182015b828111156100f55782518255916020019190600101906100da565b5b5090506101039190610107565b5090565b61012991905b8082111561012557600081600090555060010161010d565b5090565b90565b61081d8061013b6000396000f30060606040526004361061008e576000357c0100000000000000000000000000000000000000000000000000000000900463ffffffff1680630ab94086146100935780632e1a7d4d146100ce5780633940e9ee146100f157806342fc47fb1461011a5780635fc3a312146101a857806370a08231146101f5578063d0e30db014610242578063d6a98bae1461024c575b600080fd5b341561009e57600080fd5b6100b460048080359060200190919050506102a6565b604051808215151515815260200191505060405180910390f35b34156100d957600080fd5b6100ef60048080359060200190919050506102b1565b005b34156100fc57600080fd5b6101046103a4565b6040518082815260200191505060405180910390f35b341561012557600080fd5b61012d6103aa565b6040518080602001828103825283818151815260200191508051906020019080838360005b8381101561016d578082015181840152602081019050610152565b50505050905090810190601f16801561019a5780820380516001836020036101000a031916815260200191505b509250505060405180910390f35b34156101b357600080fd5b6101df600480803573ffffffffffffffffffffffffffffffffffffffff16906020019091905050610448565b6040518082815260200191505060405180910390f35b341561020057600080fd5b61022c600480803573ffffffffffffffffffffffffffffffffffffffff16906020019091905050610491565b6040518082815260200191505060405180910390f35b61024a6104da565b005b341561025757600080fd5b61028c600480803573ffffffffffffffffffffffffffffffffffffffff1690602001909190803590602001909190505061059b565b604051808215151515815260200191505060405180910390f35b600060019050919050565b61030381600260003373ffffffffffffffffffffffffffffffffffffffff1673ffffffffffffffffffffffffffffffffffffffff168152602001908152602001600020546107ba90919063ffffffff16565b600260003373ffffffffffffffffffffffffffffffffffffffff1673ffffffffffffffffffffffffffffffffffffffff1681526020019081526020016000208190555061035b816001546107ba90919063ffffffff16565b6001819055503373ffffffffffffffffffffffffffffffffffffffff166108fc829081150290604051600060405180830381858888f1935050505015156103a157600080fd5b50565b60015481565b60008054600181600116156101000203166002900480601f0160208091040260200160405190810160405280929190818152602001828054600181600116156101000203166002900480156104405780601f1061041557610100808354040283529160200191610440565b820191906000526020600020905b81548152906001019060200180831161042357829003601f168201915b505050505081565b6000600360008373ffffffffffffffffffffffffffffffffffffffff1673ffffffffffffffffffffffffffffffffffffffff168152602001908152602001600020549050919050565b6000600260008373ffffffffffffffffffffffffffffffffffffffff1673ffffffffffffffffffffffffffffffffffffffff168152602001908152602001600020549050919050565b6000341115156104e957600080fd5b61053b34600260003373ffffffffffffffffffffffffffffffffffffffff1673ffffffffffffffffffffffffffffffffffffffff168152602001908152602001600020546107d390919063ffffffff16565b600260003373ffffffffffffffffffffffffffffffffffffffff1673ffffffffffffffffffffffffffffffffffffffff16815260200190815260200160002081905550610593346001546107d390919063ffffffff16565b600181905550565b600081600260003373ffffffffffffffffffffffffffffffffffffffff1673ffffffffffffffffffffffffffffffffffffffff16815260200190815260200160002054101580156105ec5750600082115b80156106775750600260008473ffffffffffffffffffffffffffffffffffffffff1673ffffffffffffffffffffffffffffffffffffffff1681526020019081526020016000205482600260008673ffffffffffffffffffffffffffffffffffffffff1673ffffffffffffffffffffffffffffffffffffffff1681526020019081526020016000205401115b156107af576106ce82600260003373ffffffffffffffffffffffffffffffffffffffff1673ffffffffffffffffffffffffffffffffffffffff168152602001908152602001600020546107ba90919063ffffffff16565b600260003373ffffffffffffffffffffffffffffffffffffffff1673ffffffffffffffffffffffffffffffffffffffff1681526020019081526020016000208190555061076382600260008673ffffffffffffffffffffffffffffffffffffffff1673ffffffffffffffffffffffffffffffffffffffff168152602001908152602001600020546107d390919063ffffffff16565b600260008573ffffffffffffffffffffffffffffffffffffffff1673ffffffffffffffffffffffffffffffffffffffff16815260200190815260200160002081905550600190506107b4565b600090505b92915050565b60008282111515156107c857fe5b818303905092915050565b60008082840190508381101515156107e757fe5b80915050929150505600a165627a7a723058206e29cebc22efa9e4d531af4a00bc6be954f30576520019f9d56e839c8f2de1f30029",
  "source": "pragma solidity ^0.4.17;\r\n\r\nimport \"./libraries/SafeMath.sol\";\r\n\r\n\r\n//This is the basic wrapped Ether to a different chain contract. \r\n//All money deposited is transformed into ERC20 tokens at the rate of 1 wei = 1 token\r\ncontract Childchain_Bridge {\r\n\r\n  using SafeMath for uint256;\r\n\r\n  /*Variables*/\r\n\r\n  //ERC20 fields\r\n  string public childChain = \"json(https://rinkeby.infura.io/).result\"; // { return balances[_owner]; }\r\n  uint public total_supply;\r\n\r\n\r\n  //ERC20 fields\r\n  mapping(address => uint) balances;\r\n  mapping(address => uint) locked_amount;\r\n\r\n  /*Events*/\r\n\r\n  event Transferred(address indexed _from, address indexed _to, uint _value);\r\n  event StateChanged(bool _success, string _message);\r\n\r\n  /*Functions*/\r\n\r\n  //This function creates tokens equal in value to the amount sent to the contract\r\n  function deposit() public payable {\r\n    require(msg.value > 0);\r\n    balances[msg.sender] = balances[msg.sender].add(msg.value);\r\n    total_supply = total_supply.add(msg.value);\r\n  }\r\n\r\n  /*\r\n  * This function 'unwraps' an _amount of Ether in the sender's balance by transferring Ether to them\r\n  *\r\n  * @param \"_amount\": The amount of the token to unwrap\r\n  */\r\n  function withdraw(uint _value) public {\r\n    balances[msg.sender] = balances[msg.sender].sub(_value);\r\n    total_supply = total_supply.sub(_value);\r\n    msg.sender.transfer(_value);\r\n  }\r\n\r\n  //Returns the balance associated with the passed in _owner\r\n  function balanceOf(address _owner) public constant returns (uint bal) { return balances[_owner]; }\r\n\r\n  function balanceLocked(address _owner) public constant returns (uint bal) { return locked_amount[_owner]; }\r\n\r\n  /*\r\n  * Allows for a transfer of tokens to _to\r\n  *\r\n  * @param \"_to\": The address to send tokens to\r\n  * @param \"_amount\": The amount of tokens to send\r\n  */\r\n  function lockforTransfer(address _to, uint _amount) public returns (bool success) {\r\n    if (balances[msg.sender] >= _amount\r\n    && _amount > 0\r\n    && balances[_to] + _amount > balances[_to]) {\r\n      balances[msg.sender] = balances[msg.sender].sub(_amount);\r\n      balances[_to] = balances[_to].add(_amount);\r\n      return true;\r\n    } else {\r\n      return false;\r\n    }\r\n  }\r\n\r\n  function unlockEther(uint _amount) public returns (bool success){\r\n    return true;\r\n\r\n  }\r\n\r\n}\r\n",
  "sourcePath": "C:\\company\\code\\oracle_bridge\\contracts\\Childchain_Bridge.sol",
  "compiler": {
    "name": "solc",
    "version": "0.4.18+commit.9cf6e910.Emscripten.clang"
  },
  "schemaVersion": "1.0.1",
  "updatedAt": "2018-01-13T02:32:07.653Z"
}