{
  "contractName": "Strings",
  "abi": [
    {
      "constant": false,
      "inputs": [
        {
          "name": "x",
          "type": "address"
        }
      ],
      "name": "atoString",
      "outputs": [
        {
          "name": "",
          "type": "string"
        }
      ],
      "payable": false,
      "stateMutability": "nonpayable",
      "type": "function"
    }
  ],
  "bytecode": "0x610231610030600b82828239805160001a6073146000811461002057610022565bfe5b5030600052607381538281f3007300000000000000000000000000000000000000003014608060405260043610610058576000357c0100000000000000000000000000000000000000000000000000000000900463ffffffff168063ec5fc0ed1461005d575b600080fd5b81801561006957600080fd5b5061009e600480360381019080803573ffffffffffffffffffffffffffffffffffffffff169060200190929190505050610119565b6040518080602001828103825283818151815260200191508051906020019080838360005b838110156100de5780820151818401526020810190506100c3565b50505050905090810190601f16801561010b5780820380516001836020036101000a031916815260200191505b509250505060405180910390f35b606080600060146040519080825280601f01601f1916602001820160405280156101525781602001602082028038833980820191505090505b509150600090505b60148110156101fb578060130360080260020a8473ffffffffffffffffffffffffffffffffffffffff1681151561018d57fe5b047f01000000000000000000000000000000000000000000000000000000000000000282828151811015156101be57fe5b9060200101907effffffffffffffffffffffffffffffffffffffffffffffffffffffffffffff1916908160001a905350808060010191505061015a565b81925050509190505600a165627a7a723058202092c854a7e1350243f66b5a36e42c400bc5c5bd4aa7045b20d833e21b6be6740029",
  "source": "/*\r\n * @title String & slice utility library for Solidity contracts.\r\n * @author Nick Johnson <arachnid@notdot.net>\r\n *\r\n * @dev Functionality in this library is largely implemented using an\r\n *      abstraction called a 'slice'. A slice represents a part of a string -\r\n *      anything from the entire string to a single character, or even no\r\n *      characters at all (a 0-length slice). Since a slice only has to specify\r\n *      an offset and a length, copying and manipulating slices is a lot less\r\n *      expensive than copying and manipulating the strings they reference.\r\n *\r\n *      To further reduce gas costs, most functions on slice that need to return\r\n *      a slice modify the original one instead of allocating a new one; for\r\n *      instance, `s.split(\".\")` will return the text up to the first '.',\r\n *      modifying s to only contain the remainder of the string after the '.'.\r\n *      In situations where you do not want to modify the original slice, you\r\n *      can make a copy first with `.copy()`, for example:\r\n *      `s.copy().split(\".\")`. Try and avoid using this idiom in loops; since\r\n *      Solidity has no memory management, it will result in allocating many\r\n *      short-lived slices that are later discarded.\r\n *\r\n *      Functions that return two slices come in two versions: a non-allocating\r\n *      version that takes the second slice as an argument, modifying it in\r\n *      place, and an allocating version that allocates and returns the second\r\n *      slice; see `nextRune` for example.\r\n *\r\n *      Functions that have to copy string data will return strings rather than\r\n *      slices; these can be cast back to slices for further processing if\r\n *      required.\r\n *\r\n *      For convenience, some functions are provided with non-modifying\r\n *      variants that create a new slice and return both; for instance,\r\n *      `s.splitNew('.')` leaves s unmodified, and returns two values\r\n *      corresponding to the left and right parts of the string.\r\n */\r\n \r\npragma solidity ^0.4.14;\r\n\r\nlibrary Strings {\r\n    struct slice {\r\n        uint _len;\r\n        uint _ptr;\r\n    }\r\n\r\n    function memcpy(uint dest, uint src, uint len) private {\r\n        // Copy word-length chunks while possible\r\n        for(; len >= 32; len -= 32) {\r\n            assembly {\r\n                mstore(dest, mload(src))\r\n            }\r\n            dest += 32;\r\n            src += 32;\r\n        }\r\n\r\n        // Copy remaining bytes\r\n        uint mask = 256 ** (32 - len) - 1;\r\n        assembly {\r\n            let srcpart := and(mload(src), not(mask))\r\n            let destpart := and(mload(dest), mask)\r\n            mstore(dest, or(destpart, srcpart))\r\n        }\r\n    }\r\n\r\n    /*\r\n     * @dev Returns a slice containing the entire string.\r\n     * @param self The string to make a slice from.\r\n     * @return A newly allocated slice containing the entire string.\r\n     */\r\n    function toSlice(string self) internal returns (slice) {\r\n        uint ptr;\r\n        assembly {\r\n            ptr := add(self, 0x20)\r\n        }\r\n        return slice(bytes(self).length, ptr);\r\n    }\r\n\r\n    /*\r\n     * @dev Returns the length of a null-terminated bytes32 string.\r\n     * @param self The value to find the length of.\r\n     * @return The length of the string, from 0 to 32.\r\n     */\r\n    function len(bytes32 self) internal returns (uint) {\r\n        uint ret;\r\n        if (self == 0)\r\n            return 0;\r\n        if (self & 0xffffffffffffffffffffffffffffffff == 0) {\r\n            ret += 16;\r\n            self = bytes32(uint(self) / 0x100000000000000000000000000000000);\r\n        }\r\n        if (self & 0xffffffffffffffff == 0) {\r\n            ret += 8;\r\n            self = bytes32(uint(self) / 0x10000000000000000);\r\n        }\r\n        if (self & 0xffffffff == 0) {\r\n            ret += 4;\r\n            self = bytes32(uint(self) / 0x100000000);\r\n        }\r\n        if (self & 0xffff == 0) {\r\n            ret += 2;\r\n            self = bytes32(uint(self) / 0x10000);\r\n        }\r\n        if (self & 0xff == 0) {\r\n            ret += 1;\r\n        }\r\n        return 32 - ret;\r\n    }\r\n\r\n    /*\r\n     * @dev Returns a slice containing the entire bytes32, interpreted as a\r\n     *      null-termintaed utf-8 string.\r\n     * @param self The bytes32 value to convert to a slice.\r\n     * @return A new slice containing the value of the input argument up to the\r\n     *         first null.\r\n     */\r\n    function toSliceB32(bytes32 self) internal returns (slice ret) {\r\n        // Allocate space for `self` in memory, copy it there, and point ret at it\r\n        assembly {\r\n            let ptr := mload(0x40)\r\n            mstore(0x40, add(ptr, 0x20))\r\n            mstore(ptr, self)\r\n            mstore(add(ret, 0x20), ptr)\r\n        }\r\n        ret._len = len(self);\r\n    }\r\n\r\n    /*\r\n     * @dev Returns a new slice containing the same data as the current slice.\r\n     * @param self The slice to copy.\r\n     * @return A new slice containing the same data as `self`.\r\n     */\r\n    function copy(slice self) internal returns (slice) {\r\n        return slice(self._len, self._ptr);\r\n    }\r\n\r\n    /*\r\n     * @dev Copies a slice to a new string.\r\n     * @param self The slice to copy.\r\n     * @return A newly allocated string containing the slice's text.\r\n     */\r\n    function toString(slice self) internal returns (string) {\r\n        var ret = new string(self._len);\r\n        uint retptr;\r\n        assembly { retptr := add(ret, 32) }\r\n\r\n        memcpy(retptr, self._ptr, self._len);\r\n        return ret;\r\n    }\r\n\r\n    /*\r\n     * @dev Returns the length in runes of the slice. Note that this operation\r\n     *      takes time proportional to the length of the slice; avoid using it\r\n     *      in loops, and call `slice.empty()` if you only need to know whether\r\n     *      the slice is empty or not.\r\n     * @param self The slice to operate on.\r\n     * @return The length of the slice in runes.\r\n     */\r\n    function len(slice self) internal returns (uint l) {\r\n        // Starting at ptr-31 means the LSB will be the byte we care about\r\n        var ptr = self._ptr - 31;\r\n        var end = ptr + self._len;\r\n        for (l = 0; ptr < end; l++) {\r\n            uint8 b;\r\n            assembly { b := and(mload(ptr), 0xFF) }\r\n            if (b < 0x80) {\r\n                ptr += 1;\r\n            } else if(b < 0xE0) {\r\n                ptr += 2;\r\n            } else if(b < 0xF0) {\r\n                ptr += 3;\r\n            } else if(b < 0xF8) {\r\n                ptr += 4;\r\n            } else if(b < 0xFC) {\r\n                ptr += 5;\r\n            } else {\r\n                ptr += 6;\r\n            }\r\n        }\r\n    }\r\n\r\n    /*\r\n     * @dev Returns true if the slice is empty (has a length of 0).\r\n     * @param self The slice to operate on.\r\n     * @return True if the slice is empty, False otherwise.\r\n     */\r\n    function empty(slice self) internal returns (bool) {\r\n        return self._len == 0;\r\n    }\r\n\r\n    /*\r\n     * @dev Returns a positive number if `other` comes lexicographically after\r\n     *      `self`, a negative number if it comes before, or zero if the\r\n     *      contents of the two slices are equal. Comparison is done per-rune,\r\n     *      on unicode codepoints.\r\n     * @param self The first slice to compare.\r\n     * @param other The second slice to compare.\r\n     * @return The result of the comparison.\r\n     */\r\n    function compare(slice self, slice other) internal returns (int) {\r\n        uint shortest = self._len;\r\n        if (other._len < self._len)\r\n            shortest = other._len;\r\n\r\n        var selfptr = self._ptr;\r\n        var otherptr = other._ptr;\r\n        for (uint idx = 0; idx < shortest; idx += 32) {\r\n            uint a;\r\n            uint b;\r\n            assembly {\r\n                a := mload(selfptr)\r\n                b := mload(otherptr)\r\n            }\r\n            if (a != b) {\r\n                // Mask out irrelevant bytes and check again\r\n                uint mask = ~(2 ** (8 * (32 - shortest + idx)) - 1);\r\n                var diff = (a & mask) - (b & mask);\r\n                if (diff != 0)\r\n                    return int(diff);\r\n            }\r\n            selfptr += 32;\r\n            otherptr += 32;\r\n        }\r\n        return int(self._len) - int(other._len);\r\n    }\r\n\r\n    /*\r\n     * @dev Returns true if the two slices contain the same text.\r\n     * @param self The first slice to compare.\r\n     * @param self The second slice to compare.\r\n     * @return True if the slices are equal, false otherwise.\r\n     */\r\n    function equals(slice self, slice other) internal returns (bool) {\r\n        return compare(self, other) == 0;\r\n    }\r\n\r\n    /*\r\n     * @dev Extracts the first rune in the slice into `rune`, advancing the\r\n     *      slice to point to the next rune and returning `self`.\r\n     * @param self The slice to operate on.\r\n     * @param rune The slice that will contain the first rune.\r\n     * @return `rune`.\r\n     */\r\n    function nextRune(slice self, slice rune) internal returns (slice) {\r\n        rune._ptr = self._ptr;\r\n\r\n        if (self._len == 0) {\r\n            rune._len = 0;\r\n            return rune;\r\n        }\r\n\r\n        uint len;\r\n        uint b;\r\n        // Load the first byte of the rune into the LSBs of b\r\n        assembly { b := and(mload(sub(mload(add(self, 32)), 31)), 0xFF) }\r\n        if (b < 0x80) {\r\n            len = 1;\r\n        } else if(b < 0xE0) {\r\n            len = 2;\r\n        } else if(b < 0xF0) {\r\n            len = 3;\r\n        } else {\r\n            len = 4;\r\n        }\r\n\r\n        // Check for truncated codepoints\r\n        if (len > self._len) {\r\n            rune._len = self._len;\r\n            self._ptr += self._len;\r\n            self._len = 0;\r\n            return rune;\r\n        }\r\n\r\n        self._ptr += len;\r\n        self._len -= len;\r\n        rune._len = len;\r\n        return rune;\r\n    }\r\n\r\n    /*\r\n     * @dev Returns the first rune in the slice, advancing the slice to point\r\n     *      to the next rune.\r\n     * @param self The slice to operate on.\r\n     * @return A slice containing only the first rune from `self`.\r\n     */\r\n    function nextRune(slice self) internal returns (slice ret) {\r\n        nextRune(self, ret);\r\n    }\r\n\r\n    /*\r\n     * @dev Returns the number of the first codepoint in the slice.\r\n     * @param self The slice to operate on.\r\n     * @return The number of the first codepoint in the slice.\r\n     */\r\n    function ord(slice self) internal returns (uint ret) {\r\n        if (self._len == 0) {\r\n            return 0;\r\n        }\r\n\r\n        uint word;\r\n        uint length;\r\n        uint divisor = 2 ** 248;\r\n\r\n        // Load the rune into the MSBs of b\r\n        assembly { word:= mload(mload(add(self, 32))) }\r\n        var b = word / divisor;\r\n        if (b < 0x80) {\r\n            ret = b;\r\n            length = 1;\r\n        } else if(b < 0xE0) {\r\n            ret = b & 0x1F;\r\n            length = 2;\r\n        } else if(b < 0xF0) {\r\n            ret = b & 0x0F;\r\n            length = 3;\r\n        } else {\r\n            ret = b & 0x07;\r\n            length = 4;\r\n        }\r\n\r\n        // Check for truncated codepoints\r\n        if (length > self._len) {\r\n            return 0;\r\n        }\r\n\r\n        for (uint i = 1; i < length; i++) {\r\n            divisor = divisor / 256;\r\n            b = (word / divisor) & 0xFF;\r\n            if (b & 0xC0 != 0x80) {\r\n                // Invalid UTF-8 sequence\r\n                return 0;\r\n            }\r\n            ret = (ret * 64) | (b & 0x3F);\r\n        }\r\n\r\n        return ret;\r\n    }\r\n\r\n    /*\r\n     * @dev Returns the keccak-256 hash of the slice.\r\n     * @param self The slice to hash.\r\n     * @return The hash of the slice.\r\n     */\r\n    function keccak(slice self) internal returns (bytes32 ret) {\r\n        assembly {\r\n            ret := keccak256(mload(add(self, 32)), mload(self))\r\n        }\r\n    }\r\n\r\n    /*\r\n     * @dev Returns true if `self` starts with `needle`.\r\n     * @param self The slice to operate on.\r\n     * @param needle The slice to search for.\r\n     * @return True if the slice starts with the provided text, false otherwise.\r\n     */\r\n    function startsWith(slice self, slice needle) internal returns (bool) {\r\n        if (self._len < needle._len) {\r\n            return false;\r\n        }\r\n\r\n        if (self._ptr == needle._ptr) {\r\n            return true;\r\n        }\r\n\r\n        bool equal;\r\n        assembly {\r\n            let length := mload(needle)\r\n            let selfptr := mload(add(self, 0x20))\r\n            let needleptr := mload(add(needle, 0x20))\r\n            equal := eq(keccak256(selfptr, length), keccak256(needleptr, length))\r\n        }\r\n        return equal;\r\n    }\r\n\r\n    /*\r\n     * @dev If `self` starts with `needle`, `needle` is removed from the\r\n     *      beginning of `self`. Otherwise, `self` is unmodified.\r\n     * @param self The slice to operate on.\r\n     * @param needle The slice to search for.\r\n     * @return `self`\r\n     */\r\n    function beyond(slice self, slice needle) internal returns (slice) {\r\n        if (self._len < needle._len) {\r\n            return self;\r\n        }\r\n\r\n        bool equal = true;\r\n        if (self._ptr != needle._ptr) {\r\n            assembly {\r\n                let length := mload(needle)\r\n                let selfptr := mload(add(self, 0x20))\r\n                let needleptr := mload(add(needle, 0x20))\r\n                equal := eq(sha3(selfptr, length), sha3(needleptr, length))\r\n            }\r\n        }\r\n\r\n        if (equal) {\r\n            self._len -= needle._len;\r\n            self._ptr += needle._len;\r\n        }\r\n\r\n        return self;\r\n    }\r\n\r\n    /*\r\n     * @dev Returns true if the slice ends with `needle`.\r\n     * @param self The slice to operate on.\r\n     * @param needle The slice to search for.\r\n     * @return True if the slice starts with the provided text, false otherwise.\r\n     */\r\n    function endsWith(slice self, slice needle) internal returns (bool) {\r\n        if (self._len < needle._len) {\r\n            return false;\r\n        }\r\n\r\n        var selfptr = self._ptr + self._len - needle._len;\r\n\r\n        if (selfptr == needle._ptr) {\r\n            return true;\r\n        }\r\n\r\n        bool equal;\r\n        assembly {\r\n            let length := mload(needle)\r\n            let needleptr := mload(add(needle, 0x20))\r\n            equal := eq(keccak256(selfptr, length), keccak256(needleptr, length))\r\n        }\r\n\r\n        return equal;\r\n    }\r\n\r\n    /*\r\n     * @dev If `self` ends with `needle`, `needle` is removed from the\r\n     *      end of `self`. Otherwise, `self` is unmodified.\r\n     * @param self The slice to operate on.\r\n     * @param needle The slice to search for.\r\n     * @return `self`\r\n     */\r\n    function until(slice self, slice needle) internal returns (slice) {\r\n        if (self._len < needle._len) {\r\n            return self;\r\n        }\r\n\r\n        var selfptr = self._ptr + self._len - needle._len;\r\n        bool equal = true;\r\n        if (selfptr != needle._ptr) {\r\n            assembly {\r\n                let length := mload(needle)\r\n                let needleptr := mload(add(needle, 0x20))\r\n                equal := eq(keccak256(selfptr, length), keccak256(needleptr, length))\r\n            }\r\n        }\r\n\r\n        if (equal) {\r\n            self._len -= needle._len;\r\n        }\r\n\r\n        return self;\r\n    }\r\n\r\n    // Returns the memory address of the first byte of the first occurrence of\r\n    // `needle` in `self`, or the first byte after `self` if not found.\r\n    function findPtr(uint selflen, uint selfptr, uint needlelen, uint needleptr) private returns (uint) {\r\n        uint ptr;\r\n        uint idx;\r\n\r\n        if (needlelen <= selflen) {\r\n            if (needlelen <= 32) {\r\n                // Optimized assembly for 68 gas per byte on short strings\r\n                assembly {\r\n                    let mask := not(sub(exp(2, mul(8, sub(32, needlelen))), 1))\r\n                    let needledata := and(mload(needleptr), mask)\r\n                    let end := add(selfptr, sub(selflen, needlelen))\r\n                    ptr := selfptr\r\n                    loop:\r\n                    jumpi(exit, eq(and(mload(ptr), mask), needledata))\r\n                    ptr := add(ptr, 1)\r\n                    jumpi(loop, lt(sub(ptr, 1), end))\r\n                    ptr := add(selfptr, selflen)\r\n                    exit:\r\n                }\r\n                return ptr;\r\n            } else {\r\n                // For long needles, use hashing\r\n                bytes32 hash;\r\n                assembly { hash := sha3(needleptr, needlelen) }\r\n                ptr = selfptr;\r\n                for (idx = 0; idx <= selflen - needlelen; idx++) {\r\n                    bytes32 testHash;\r\n                    assembly { testHash := sha3(ptr, needlelen) }\r\n                    if (hash == testHash)\r\n                        return ptr;\r\n                    ptr += 1;\r\n                }\r\n            }\r\n        }\r\n        return selfptr + selflen;\r\n    }\r\n\r\n    // Returns the memory address of the first byte after the last occurrence of\r\n    // `needle` in `self`, or the address of `self` if not found.\r\n    function rfindPtr(uint selflen, uint selfptr, uint needlelen, uint needleptr) private returns (uint) {\r\n        uint ptr;\r\n\r\n        if (needlelen <= selflen) {\r\n            if (needlelen <= 32) {\r\n                // Optimized assembly for 69 gas per byte on short strings\r\n                assembly {\r\n                    let mask := not(sub(exp(2, mul(8, sub(32, needlelen))), 1))\r\n                    let needledata := and(mload(needleptr), mask)\r\n                    ptr := add(selfptr, sub(selflen, needlelen))\r\n                    loop:\r\n                    jumpi(ret, eq(and(mload(ptr), mask), needledata))\r\n                    ptr := sub(ptr, 1)\r\n                    jumpi(loop, gt(add(ptr, 1), selfptr))\r\n                    ptr := selfptr\r\n                    jump(exit)\r\n                    ret:\r\n                    ptr := add(ptr, needlelen)\r\n                    exit:\r\n                }\r\n                return ptr;\r\n            } else {\r\n                // For long needles, use hashing\r\n                bytes32 hash;\r\n                assembly { hash := sha3(needleptr, needlelen) }\r\n                ptr = selfptr + (selflen - needlelen);\r\n                while (ptr >= selfptr) {\r\n                    bytes32 testHash;\r\n                    assembly { testHash := sha3(ptr, needlelen) }\r\n                    if (hash == testHash)\r\n                        return ptr + needlelen;\r\n                    ptr -= 1;\r\n                }\r\n            }\r\n        }\r\n        return selfptr;\r\n    }\r\n\r\n    /*\r\n     * @dev Modifies `self` to contain everything from the first occurrence of\r\n     *      `needle` to the end of the slice. `self` is set to the empty slice\r\n     *      if `needle` is not found.\r\n     * @param self The slice to search and modify.\r\n     * @param needle The text to search for.\r\n     * @return `self`.\r\n     */\r\n    function find(slice self, slice needle) internal returns (slice) {\r\n        uint ptr = findPtr(self._len, self._ptr, needle._len, needle._ptr);\r\n        self._len -= ptr - self._ptr;\r\n        self._ptr = ptr;\r\n        return self;\r\n    }\r\n\r\n    /*\r\n     * @dev Modifies `self` to contain the part of the string from the start of\r\n     *      `self` to the end of the first occurrence of `needle`. If `needle`\r\n     *      is not found, `self` is set to the empty slice.\r\n     * @param self The slice to search and modify.\r\n     * @param needle The text to search for.\r\n     * @return `self`.\r\n     */\r\n    function rfind(slice self, slice needle) internal returns (slice) {\r\n        uint ptr = rfindPtr(self._len, self._ptr, needle._len, needle._ptr);\r\n        self._len = ptr - self._ptr;\r\n        return self;\r\n    }\r\n\r\n    /*\r\n     * @dev Splits the slice, setting `self` to everything after the first\r\n     *      occurrence of `needle`, and `token` to everything before it. If\r\n     *      `needle` does not occur in `self`, `self` is set to the empty slice,\r\n     *      and `token` is set to the entirety of `self`.\r\n     * @param self The slice to split.\r\n     * @param needle The text to search for in `self`.\r\n     * @param token An output parameter to which the first token is written.\r\n     * @return `token`.\r\n     */\r\n    function split(slice self, slice needle, slice token) internal returns (slice) {\r\n        uint ptr = findPtr(self._len, self._ptr, needle._len, needle._ptr);\r\n        token._ptr = self._ptr;\r\n        token._len = ptr - self._ptr;\r\n        if (ptr == self._ptr + self._len) {\r\n            // Not found\r\n            self._len = 0;\r\n        } else {\r\n            self._len -= token._len + needle._len;\r\n            self._ptr = ptr + needle._len;\r\n        }\r\n        return token;\r\n    }\r\n\r\n    /*\r\n     * @dev Splits the slice, setting `self` to everything after the first\r\n     *      occurrence of `needle`, and returning everything before it. If\r\n     *      `needle` does not occur in `self`, `self` is set to the empty slice,\r\n     *      and the entirety of `self` is returned.\r\n     * @param self The slice to split.\r\n     * @param needle The text to search for in `self`.\r\n     * @return The part of `self` up to the first occurrence of `delim`.\r\n     */\r\n    function split(slice self, slice needle) internal returns (slice token) {\r\n        split(self, needle, token);\r\n    }\r\n\r\n    /*\r\n     * @dev Splits the slice, setting `self` to everything before the last\r\n     *      occurrence of `needle`, and `token` to everything after it. If\r\n     *      `needle` does not occur in `self`, `self` is set to the empty slice,\r\n     *      and `token` is set to the entirety of `self`.\r\n     * @param self The slice to split.\r\n     * @param needle The text to search for in `self`.\r\n     * @param token An output parameter to which the first token is written.\r\n     * @return `token`.\r\n     */\r\n    function rsplit(slice self, slice needle, slice token) internal returns (slice) {\r\n        uint ptr = rfindPtr(self._len, self._ptr, needle._len, needle._ptr);\r\n        token._ptr = ptr;\r\n        token._len = self._len - (ptr - self._ptr);\r\n        if (ptr == self._ptr) {\r\n            // Not found\r\n            self._len = 0;\r\n        } else {\r\n            self._len -= token._len + needle._len;\r\n        }\r\n        return token;\r\n    }\r\n\r\n    /*\r\n     * @dev Splits the slice, setting `self` to everything before the last\r\n     *      occurrence of `needle`, and returning everything after it. If\r\n     *      `needle` does not occur in `self`, `self` is set to the empty slice,\r\n     *      and the entirety of `self` is returned.\r\n     * @param self The slice to split.\r\n     * @param needle The text to search for in `self`.\r\n     * @return The part of `self` after the last occurrence of `delim`.\r\n     */\r\n    function rsplit(slice self, slice needle) internal returns (slice token) {\r\n        rsplit(self, needle, token);\r\n    }\r\n\r\n    /*\r\n     * @dev Counts the number of nonoverlapping occurrences of `needle` in `self`.\r\n     * @param self The slice to search.\r\n     * @param needle The text to search for in `self`.\r\n     * @return The number of occurrences of `needle` found in `self`.\r\n     */\r\n    function count(slice self, slice needle) internal returns (uint cnt) {\r\n        uint ptr = findPtr(self._len, self._ptr, needle._len, needle._ptr) + needle._len;\r\n        while (ptr <= self._ptr + self._len) {\r\n            cnt++;\r\n            ptr = findPtr(self._len - (ptr - self._ptr), ptr, needle._len, needle._ptr) + needle._len;\r\n        }\r\n    }\r\n\r\n    /*\r\n     * @dev Returns True if `self` contains `needle`.\r\n     * @param self The slice to search.\r\n     * @param needle The text to search for in `self`.\r\n     * @return True if `needle` is found in `self`, false otherwise.\r\n     */\r\n    function contains(slice self, slice needle) internal returns (bool) {\r\n        return rfindPtr(self._len, self._ptr, needle._len, needle._ptr) != self._ptr;\r\n    }\r\n\r\n    /*\r\n     * @dev Returns a newly allocated string containing the concatenation of\r\n     *      `self` and `other`.\r\n     * @param self The first slice to concatenate.\r\n     * @param other The second slice to concatenate.\r\n     * @return The concatenation of the two strings.\r\n     */\r\n    function concat(slice self, slice other) internal returns (string) {\r\n        var ret = new string(self._len + other._len);\r\n        uint retptr;\r\n        assembly { retptr := add(ret, 32) }\r\n        memcpy(retptr, self._ptr, self._len);\r\n        memcpy(retptr + self._len, other._ptr, other._len);\r\n        return ret;\r\n    }\r\n\r\n    /*\r\n     * @dev Joins an array of slices, using `self` as a delimiter, returning a\r\n     *      newly allocated string.\r\n     * @param self The delimiter to use.\r\n     * @param parts A list of slices to join.\r\n     * @return A newly allocated string containing all the slices in `parts`,\r\n     *         joined with `self`.\r\n     */\r\n    function join(slice self, slice[] parts) internal returns (string) {\r\n        if (parts.length == 0)\r\n            return \"\";\r\n\r\n        uint length = self._len * (parts.length - 1);\r\n        for(uint i = 0; i < parts.length; i++)\r\n            length += parts[i]._len;\r\n\r\n        var ret = new string(length);\r\n        uint retptr;\r\n        assembly { retptr := add(ret, 32) }\r\n\r\n        for(i = 0; i < parts.length; i++) {\r\n            memcpy(retptr, parts[i]._ptr, parts[i]._len);\r\n            retptr += parts[i]._len;\r\n            if (i < parts.length - 1) {\r\n                memcpy(retptr, self._ptr, self._len);\r\n                retptr += self._len;\r\n            }\r\n        }\r\n\r\n        return ret;\r\n    }\r\n\r\n    function atoString(address x) returns (string) {\r\n    bytes memory b = new bytes(20);\r\n    for (uint i = 0; i < 20; i++)\r\n        b[i] = byte(uint8(uint(x) / (2**(8*(19 - i)))));\r\n    return string(b);\r\n}\r\n}",
  "sourcePath": "C:\\company\\code\\oracle_bridge\\contracts\\libraries\\Strings.sol",
  "compiler": {
    "name": "solc",
    "version": "0.4.24+commit.e67f0147.Emscripten.clang"
  },
  "schemaVersion": "2.0.0",
  "updatedAt": "2018-06-27T18:03:57.152Z"
}